:020000040800F2
:1000000078070020D5010008250900081D0900080F
:1000100021090008D5040008171500080000000099
:10002000000000000000000000000000C50A0008F9
:10003000D904000800000000AD090008D90B000831
:10004000EF010008EF010008EF010008EF010008D0
:10005000EF010008EF010008EF010008EF010008C0
:10006000EF010008EF010008EF010008EF010008B0
:10007000EF010008EF010008EF010008EF010008A0
:10008000EF010008EF010008EF010008EF01000890
:10009000EF010008EF010008EF010008EF01000880
:1000A000EF010008EF010008EF010008EF01000870
:1000B0007D0E00083D0F0008EF010008EF01000869
:1000C000EF010008EF010008EF010008EF01000850
:1000D000EF010008F5120008EF010008EF01000829
:1000E000EF010008EF010008EF010008EF01000830
:1000F000EF010008EF010008EF010008EF01000820
:10010000EF010008EF010008F90F0008EF010008F7
:10011000EF010008EF010008EF010008EF010008FF
:10012000EF010008EF010008EF010008EF010008EF
:1001300000F002F800F03FF80AA090E8000C8244BA
:100140008344AAF10107DA4501D100F034F8AFF297
:10015000090EBAE80F0013F0010F18BFFB1A43F0A5
:10016000010318471C1700003C170000103A24BF79
:1001700078C878C1FAD8520724BF30C830C144BF0C
:1001800004680C607047000000230024002500264E
:10019000103A28BF78C1FBD8520728BF30C148BFEA
:1001A0000B607047642900F07780002070471FB50E
:1001B0001FBD10B510BD00F05DF91146FFF7F7FF48
:1001C00001F0F0FA00F07BF903B4FFF7F2FF03BC93
:1001D00001F068FA0948804709480047FEE7FEE752
:1001E000FEE7FEE7FEE7FEE7FEE7FEE7FEE7FEE7E7
:1001F00004480549054A064B70470000DD0B00081E
:1002000031010008780100207807002078030020E1
:1002100078030020704700000FB4044910B503AA0A
:10022000029800F0F9F810BC5DF814FB2C000020D7
:100230002DE9F0410E460446002020622046E16888
:10024000884730B3252805D0D4E901219047206A9A
:10025000401CF2E7E168204600278847050018D0D7
:10026000A5F14100192802D820354FF40067324625
:10027000294620462760FFF795FF40B1012804D0AA
:10028000F61D26F007060836D8E7361DD6E72846BD
:10029000DAE7206ABDE8F0812DE9F0410646002446
:1002A00010687529314616A510D0AFF300800028DC
:1002B00002DA404213A507E031688A0701D512A58A
:1002C00002E0490704D511A5012401E0AFF3008045
:1002D00000210A2206F1240709E0B0FBF2FCB0FB82
:1002E000F2F302FB1C00303078541846491C0028F9
:1002F000F3D123462A463046BDE8F04100F033B83A
:10030000000000002D0000002B0000002000000075
:100310004FF0000200B5134694469646203922BF9E
:10032000A0E80C50A0E80C50B1F12001BFF4F7AFE9
:10033000090728BFA0E80C5048BF0CC05DF804EBCB
:10034000890028BF40F8042B08BF704748BF20F839
:10035000022B11F0804F18BF00F8012B7047704737
:100360007047704770472DE9F0470D469946924611
:10037000044600F124080168880604D5E06921F0EC
:100380001001216000E00120A84201DD471B00E0D0
:100390000027A1697A1902EB0900081AA0612078E8
:1003A000C00602D42046AFF30080002608E0D4E95E
:1003B00001211AF806009047206A401C761C206232
:1003C0004E45F4DB2078C0060AD52046AFF3008006
:1003D00006E0D4E9012130209047206A401C2062C9
:1003E000381EA7F10107F4DC07E0D4E9012118F871
:1003F00005009047206A401C2062281EA5F10105D7
:10040000F3DC2046AFF300802078000602D50220FE
:10041000BDE8F0870120FBE7074B70B50D467B4434
:1004200000F011F80446284600F020F810B14FF013
:10043000FF3070BD204670BD6713000001694A1C83
:1004400002610878704700B58FB0CDE90131002115
:10045000059105497944CDE9031011466846FFF737
:10046000E7FE0FB000BD0000E5FFFFFF007B00F0DE
:1004700080007047754600F029F8AE4605006946D1
:10048000534620F00700854618B020B5FFF7B0FEB0
:10049000BDE820404FF000064FF000074FF0000885
:1004A0004FF0000B21F00701AC46ACE8C009ACE806
:1004B000C009ACE8C009ACE8C0098D4670470446E5
:1004C000AFF300802046FFF77FFE00000048704732
:1004D0001401002000BFFEE770472DE9F0410246FD
:1004E00000250026002000230024002791F803C0E7
:1004F0000CF00F0591F803C00CF0100CBCF1000FCC
:1005000003D091F802C04CEA050591F800C0BCF197
:10051000000F31D0146800202BE04FF0010C0CFAD2
:1005200000F3B1F800C00CEA03069E4220D183001C
:100530004FF00F0C0CFA03F7BC4305FA03FC4CEA2E
:10054000040491F803C0BCF1280F06D14FF0010C50
:100550000CFA00FCC2F814C00AE091F803C0BCF128
:10056000480F05D14FF0010C0CFA00FCC2F810C086
:10057000401C0828D1D31460B1F800C0BCF1FF0FB3
:1005800034DD546800202EE000F1080C4FF0010823
:1005900008FA0CF3B1F800C00CEA03069E4221D120
:1005A00083004FF00F0C0CFA03F7BC4305FA03FC71
:1005B0004CEA040491F803C0BCF1280F05D100F106
:1005C000080C08FA0CF8C2F8148091F803C0BCF1CA
:1005D000480F07D100F1080C4FF0010808FA0CF899
:1005E000C2F81080401C0828CED35460BDE8F081CA
:1005F00041617047016170472DE9F04F97B00020CD
:100600001690159014900026002780461390002421
:100610000025814682468346129011901090142145
:100620000BA8FFF775FE142106A8FFF771FE142131
:1006300001A8FFF76DFE4FF4165001F0D1F800202D
:1006400013901CE123E04FF40061AC48FFF7D2FFA8
:100650004FF48051A948FFF7CDFF4FF40051A74850
:10066000FFF7C8FF142001F069F84FF40061A348B8
:10067000FFF7BEFF4FF48051A048FFF7B9FF4FF4DA
:1006800000519E48FFF7B4FF142001F031F89C4858
:10069000007800F080000028D5D09A48007800F05B
:1006A00080000028CFD09848007800F08000002813
:1006B000C9D09448007800F08000002844D09148C8
:1006C000007800F03F0016904CF2503116984843E5
:1006D00016908E490988169808441690AA211698F3
:1006E00000FB01F64FF47A7096FBF0F6022E28DB41
:1006F00040F6B830864224DABAF1000F06D15046EF
:100700000AF1010A0BA941F820601AE0AAF10100E0
:100710000BA951F82000B04205DC50460AF1010A4D
:1007200041F820600DE0544606E0601E0BA951F828
:10073000200041F82400641E002CF6DC0B960AF120
:10074000010A00206F4908706D48007800F08000B1
:1007500098B36B48007800F03F0015904CF2503190
:100760001598484315906A490988159808441590CA
:10077000AA21159800FB01F74FF47A7097FBF0F768
:10078000022F29DB40F6B830874225DABBF1000F93
:1007900006D158460BF1010B06A941F820701BE069
:1007A000ABF1010006A951F82000B84206DC58461A
:1007B0000BF1010B41F820700EE010E05C4606E002
:1007C000601E06A951F8200041F82400641E002C88
:1007D000F6DC06970BF1010B0020494908704A48E6
:1007E000007800F08000A0B34748007800F03F0098
:1007F00014904CF25031149848431490454909889C
:10080000149808441490AA21149800FB01F84FF49E
:100810007A7098FBF0F8B8F1020F2ADB40F6B83096
:10082000804526DAB9F1000F06D1484609F10109E1
:1008300001A941F820801CE0A9F1010001A951F8AB
:100840002000404506DC484609F1010941F82080B6
:100850000FE011E04C4606E0601E01A951F82000AF
:1008600041F82400641E002CF6DCCDF8048009F168
:1008700001090020244908701398401C1390139814
:100880000528FFF6DFAE012506E00BA850F825107D
:100890001298084412906D1CAAF10100A842F4DCE1
:1008A000401E129991FBF0F6012506E006A850F8CB
:1008B00025101198084411906D1CABF10100A8425D
:1008C000F4DC401E119991FBF0F7012506E001A828
:1008D00050F825101098084410906D1CA9F10100E3
:1008E000A842F4DC401E109991FBF0F80A4806601B
:1008F0004760C0F8088017B0BDE8F08F00100140D5
:1009000032000020360000203A000020380000208D
:10091000340000203C0000200801002000BFFEE75A
:1009200000BFFEE77047000070B5002100230F22D2
:10093000C47804B3154C246804F4E064C4F5E0649E
:10094000210AC1F10403CA40447804FA03F184780F
:100950001440214309010E4C0678A155047804F097
:100960001F050124AC4005786D11AD0005F1E025AF
:10097000C5F8004109E0047804F01F050124AC40EB
:10098000044D0678761145F8264070BD0CED00E068
:1009900000E400E080E100E002490143024A116006
:1009A000704700000000FA050CED00E07047000001
:1009B00029B1064AD2690243044BDA6104E0034AD2
:1009C000D2698243014BDA61704700000010024097
:1009D00029B1064A92690243044B9A6104E0034A32
:1009E00092698243014B9A617047000000100240F7
:1009F00030B500210022002400232D4D6D6805F044
:100A00000C0121B1042905D0082923D105E0294D85
:100A1000056022E0274D05601FE0254D6D6805F457
:100A20007012234D6D6805F48034022505EB924267
:100A30001CB9214D554305600BE01D4D6D6805F453
:100A400000351DB11C4D5543056002E0194D55435D
:100A5000056002E0174D056000BF00BF144D6D68D2
:100A600005F0F0010909154D6B5C0568DD40456036
:100A70000F4D6D6805F4E061090A104D6B5C456827
:100A8000DD4085600A4D6D6805F46051C90A0B4D63
:100A90006B5C4568DD40C560054D6D6805F44041FF
:100AA000890B074D6B5CC568B5FBF3F5056130BD7F
:100AB0000010024000127A0000093D0014000020DE
:100AC00024000020704710B500F002F810BD0000AF
:100AD0000CB50020019000903348006840F480304D
:100AE0003149086000BF3048006800F400300090D1
:100AF0000198401C0190009818B90198B0F5A06FBA
:100B0000F1D12948006800F4003010B101200090B4
:100B100001E0002000900098012843D1234800689C
:100B200040F01000214908600846006820F00300EA
:100B300008600846006840F0020008601A484068F3
:100B4000194948600846406848600846406840F4D3
:100B5000806048600846406820F47C104860084681
:100B6000406840F4E81048600846006840F0807033
:100B7000086000BF0C48006800F000700028F9D041
:100B80000948406820F0030007494860084640686B
:100B900040F00200486000BF0348406800F00C00CD
:100BA0000828F9D10CBD00000010024000200240CE
:100BB000042808D14FF0E021096941F004014FF009
:100BC000E022116107E04FF0E021096921F0040102
:100BD0004FF0E022116170477047000010B51348D4
:100BE000006840F00100114908600846406810495B
:100BF00008400E494860084600680E4908400B4905
:100C000008600846006820F48020086008464068B4
:100C100020F4FE0048604FF41F008860FFF753FF88
:100C20004FF000600449086010BD00000010024051
:100C30000000FFF8FFFFF6FE08ED00E0F0B50C46FF
:100C4000154600220021068C4FF6FE773E400684B2
:100C5000028B018C4FF60C7632407E1C06EA03169E
:100C60002E433243104EB0420ED0104EB0420BD045
:100C7000B0F1804F08D00E4EB04205D00D4EB042BC
:100C800002D00D4EB04206D14FF6FD76314044F011
:100C90000106314305E04FF6F576314044F0010698
:100CA000314302830184F0BD002C01400034014037
:100CB0000004004000080040000C0040F0B50C4665
:100CC0001546002200210026078C4FF6EF7C07EA2C
:100CD0000C070784028B018C4FF6FF7707EA041696
:100CE00040F6FF473A404FF6FF7707EA03373A43AB
:100CF0004FF6FF7707EA05273A43114FB8420ED067
:100D0000104FB8420BD0B0F1804F08D00E4FB84210
:100D100005D00E4FB84202D00D4FB84206D14FF663
:100D2000DF77394046F01007394305E04FF65F772B
:100D3000394044F01007394302830184F0BD0000BC
:100D4000002C014000340140000400400008004035
:100D5000000C0040F0B50C4615460022002100268C
:100D6000078C4FF6FF6C07EA0C070784828B018C17
:100D70004FF6FF7707EA04264FF60C773A404FF616
:100D8000FF7707EA03172F433A43114FB8420ED0BB
:100D9000104FB8420BD0B0F1804F08D00E4FB84280
:100DA00005D00E4FB84202D00D4FB84206D14FF6D3
:100DB000FF57394046F48077394305E04FF2FF573B
:100DC000394044F48077394382830184F0BD0000C8
:100DD000002C0140003401400004004000080040A5
:100DE000000C0040F0B50C461546002200210026FC
:100DF000078C4EF6FF7C07EA0C070784828B018C78
:100E00004FF6FF7707EA043640F6FF473A404FF6C1
:100E1000FF7707EA05273A434FF6FF7707EA0337DC
:100E20003A43114FB8420ED0104FB8420BD0B0F138
:100E3000804F08D00E4FB84205D00E4FB84202D0B6
:100E40000D4FB84206D14DF6FF77394046F4805732
:100E5000394305E047F6FF57394044F4805739439A
:100E600082830184F0BD0000002C01400034014069
:100E70000004004000080040000C004010B52D4860
:100E8000007800F08000F8B90121880700F027F908
:100E9000D0B12848007800F04000A8B1254800787B
:100EA00000F03F003F280AD12248007840F080003F
:100EB000204908704FF6FF701F49088004E01D4864
:100EC0000078401C1B4908700421080700F007F94E
:100ED00050B31848007800F0400088B115480078F9
:100EE00040F08000134908704FF0804000F0F1F8A6
:100EF0001149088000214FF0804000F060F913E0B4
:100F000000200C4908700C49088000214FF08040F7
:100F100000F06FF90748007840F04000054908707C
:100F20000221480700F04BF90521880700F0C2F8BC
:100F300010BD0000360000203800002010B52B48FE
:100F4000007800F08000F8B90121294800F0C7F8C6
:100F5000D0B12648007800F04000A8B123480078BE
:100F600000F03F003F280AD12048007840F0800080
:100F70001E4908704FF6FF701E49088004E01B48A8
:100F80000078401C194908700821194800F0A7F89A
:100F900038B31648007800F0400078B11348007864
:100FA00040F0800011490870114800F095F811498F
:100FB000088000210E4800F00FF912E000200B49D4
:100FC00008700C4908800021094800F012F9074810
:100FD000007840F04000054908700221044800F004
:100FE000FBF80921024800F065F810BD320000202E
:100FF000000400403400002010B52B48007800F0B9
:101000008000F8B90121294800F069F8D0B12648DC
:10101000007800F04000A8B12348007800F03F00BD
:101020003F280AD12048007840F080001E4908700F
:101030004FF6FF701E49088004E01B480078401CF2
:10104000194908700821194800F049F838B31648C2
:10105000007800F0400078B11348007840F080003C
:1010600011490870114800F037F811490880002133
:101070000E4800F0B1F812E000200B4908700C494E
:1010800008800021094800F0B4F80748007840F0D3
:101090004000054908700221044800F09DF809212C
:1010A000024800F007F810BD3A000020000C004094
:1010B0003C000020CA430282704721B1028842F0FE
:1010C0000102028004E002884FF6FE731A4002809B
:1010D00070470146088F70470146888F704730B5CA
:1010E0000246002000230024158A05EA01039589A1
:1010F00005EA010413B10CB1012000E0002030BD6D
:1011000070B505460C46244885420ED023488542DA
:101110000BD0B5F1804F08D02148854205D0214839
:10112000854202D02048854200D100E000BF2088DF
:1011300050B92389A28861882846FFF77FFDE1889E
:10114000284600F058F825E0208804280AD1238991
:10115000A28861882846FFF7B1FDE188284600F0A3
:1011600053F817E0208808280AD12389A2886188CB
:101170002846FFF7EFFDE188284600F052F809E025
:101180002389A28861882846FFF72CFEE18828463B
:1011900000F050F870BD0000002C01400034014008
:1011A0000004004000080040000C00401AB1838990
:1011B0000B43838102E083898B43838170470A4616
:1011C0000021018C4FF6DF7319404FF6FF7303EADD
:1011D00002131943018470470A460021018C4FF61F
:1011E000FF5319404FF6FF7303EA022319430184AA
:1011F000704781847047028B4FF6F3731A40028365
:10120000028B0A4302837047028B4FF2FF331A406E
:101210000283028B4FF6FF7303EA01231A43028312
:101220007047828B4FF6F3731A408283828B0A4396
:1012300082837047828B4FF2FF331A408283828B06
:101240004FF6FF7303EA01231A43828370470000BD
:10125000002202881D4B98420ED01D4B98420BD0A5
:10126000B0F1804F08D01B4B984205D01A4B9842E2
:1012700002D01A4B984204D14FF68F731A404B8814
:101280001A43174B984207D0164B984204D04FF69A
:10129000FF431A40CB881A4302808B8883850B88D2
:1012A00003850A4B98420BD0094B984208D00E4B4D
:1012B000984205D00D4B984202D00D4B984201D177
:1012C0000B7A03860123838270470000002C0140C3
:1012D000003401400004004000080040000C0040C1
:1012E0000010004000140040004001400044014054
:1012F0000048014010B540F225511D4800F04AF861
:1013000010B31B4800F002F9C4B21A48008800F478
:101310000040C8B91748008800F4804060B10A2C2A
:1013200003D000201349088020E01248008840F4D0
:1013300000401049088019E00D2C06D10D480088A6
:1013400040F480400B49088010E00A480088C0F350
:101350000D0009490C5407480088401C05490880C5
:1013600008460088C72801DD0020088010BD000065
:1013700000380140300000204000002021B1828967
:1013800042F40052828104E082894DF6FF731A40D4
:101390008281704770B5024600240023002500209A
:1013A00040F66A16B14200D100BFC1F3421501F008
:1013B0001F03012606FA03F3012D02D1968933405B
:1013C00006E0022D02D1168A334001E0968A3340AE
:1013D0000C12012606FA04F41688344013B10CB13D
:1013E000012000E0002070BDF0B503460024002677
:1013F0000025002040F66A17B94200D100BF184608
:10140000C1F3421401F01F06012707FA06F5012C6B
:1014100001D10C3004E0022C01D1103000E0143076
:101420001AB107682F43076002E00768AF430760FF
:10143000F0BD00002DE9F04786B005460E460024B9
:10144000A24600BFA1460027B08900B100BF2F46C9
:101450002C8A4CF6FF700440F08804432C82AC893F
:101460004EF6F3100440B08831890843718908436F
:101470000443AC81AC8A4FF6FF400440B08904437A
:10148000AC8201A8FFF7B4FA1F48874202D1DDF809
:1014900010A001E0DDF80CA0A88900F4004040B1E4
:1014A0000AEBCA0000EB0A1031684900B0FBF1F802
:1014B00007E00AEBCA0000EB0A1031688900B0FBB4
:1014C000F1F86420B8FBF0F004012009642101FB6D
:1014D0001089A88900F4004040B1322000EBC90017
:1014E000B0FBF1F000F00700044308E0322000EB0D
:1014F00009106421B0FBF1F000F00F0004432C81CF
:1015000006B0BDE8F0870000003801400146888839
:10151000C0F30800704700BFFEE7000000B589B0C7
:1015200001210846FFF744FA01210420FFF750FA91
:1015300001210220FFF73CFA01210820FFF748FAB9
:1015400001210820FFF734FA01211020FFF740FAAB
:101550004FF46050ADF8200010208DF823000320D8
:101560008DF8220008A94A48FEF7B7FF4FF46051F2
:101570004748FFF73DF80620ADF8200048208DF8D9
:10158000230008A94348FEF7A8FF06214148FFF7BA
:101590002FF80120ADF8200008A93F48FEF79DFF75
:1015A00001213D48FFF724F84CF24F30ADF8180008
:1015B0004720ADF814000020ADF81A00ADF8160071
:1015C00005A94FF08040FFF743FE05A93348FFF718
:1015D0003FFE05A93248FFF73BFE0420ADF80400AA
:1015E0000020ADF806000120ADF808000020ADF89D
:1015F0000A000320ADF80C0001A94FF08040FFF76E
:101600007FFD0820ADF8040001A92448FFF778FD0C
:101610000820ADF8040001A92148FFF771FD1C2046
:101620008DF8100002208DF8110000208DF81200B6
:1016300001208DF8130004A8FFF776F91D208DF81E
:10164000100004A8FFF770F932208DF8100004A8EC
:10165000FFF76AF9012205218807FFF7A7FD01219D
:101660008807FFF72AFD012209210C48FFF79EFD9C
:1016700001210A48FFF721FD012209210848FFF74F
:1016800095FD01210648FFF718FD09B000BD0000D7
:101690000010014000080140000C0140000400401F
:1016A000000C0040014600BF7047000010B56FF00D
:1016B0000400FFF77DFA0A4800680A49B0FBF1F020
:1016C000094908700846007800EB4001C1EBC010E2
:1016D0004FF6FF7101EAC0000449088010BD000008
:1016E0000000002000127A00280000202A000020BC
:1016F0000146114A12884A434FF0E0235A61002202
:101700009A611A46126942F001021A6100BF4FF055
:10171000E022106900F001021AB100F48032002AC0
:10172000F5D04FF0E022126922F001024FF0E023E1
:101730001A6100229A6170472A0000200146114A6E
:1017400012784A434FF0E0235A6100229A611A4608
:10175000126942F001021A6100BF4FF0E0221069E5
:1017600000F001021AB100F48032002AF5D04FF0E7
:10177000E022126922F001024FF0E0231A610022F8
:101780009A6170472800002000BF054A128802F0C5
:101790004002002AF9D0C2B2014B1B1D1A807047CB
:1017A000003801404FF4A060FFF7F6F8FFF77EFF26
:1017B0004FF4165000F014F8FFF7B0FE0AE0FEF701
:1017C0001BFF4FF4FA70FFF793FF0348416803A033
:1017D000FEF722FDF3E700000801002025640A005F
:1017E00010B586B00446012144F20400FFF7F0F87A
:1017F0004FF40070ADF8140003208DF81600182087
:101800008DF8170005A91C48FEF767FE4FF48060AD
:10181000ADF8140004208DF8170005A91648FEF74E
:101820005CFE25208DF8000003208DF801008DF866
:10183000020001208DF803006846FFF775F8019457
:101840000020ADF80800ADF80A00ADF80C00ADF8C6
:1018500010000C20ADF80E0001A90848FFF7EAFDC2
:10186000012240F225510548FFF7BEFD0121034842
:10187000FFF784FD06B010BD0008014000380140AC
:10188000A018000800000020400000006C010008C3
:10189000E018000840000020380700008801000818
:1018A00000A24A040000000000000000010203043E
:1018B00006070809000000000102030401020304F6
:1018C00006070809020406080000000000000000E6
:1018D0000000000000000000000000000000000008
:0400000508000131BD
:00000001FF
